{
    "contractName": "CrowFounding",
    "abi": [
        {
            "inputs": [
                {
                    "internalType": "address",
                    "name": "_owner",
                    "type": "address"
                }
            ],
            "stateMutability": "nonpayable",
            "type": "constructor"
        },
        {
            "inputs": [],
            "name": "deadline",
            "outputs": [
                {
                    "internalType": "uint256",
                    "name": "",
                    "type": "uint256"
                }
            ],
            "stateMutability": "view",
            "type": "function"
        },
        {
            "inputs": [
                {
                    "internalType": "uint256",
                    "name": "_amount",
                    "type": "uint256"
                }
            ],
            "name": "donation",
            "outputs": [],
            "stateMutability": "payable",
            "type": "function"
        },
        {
            "inputs": [],
            "name": "fundContribution",
            "outputs": [
                {
                    "internalType": "uint256",
                    "name": "",
                    "type": "uint256"
                }
            ],
            "stateMutability": "view",
            "type": "function"
        },
        {
            "inputs": [],
            "name": "getBalance",
            "outputs": [
                {
                    "internalType": "uint256",
                    "name": "",
                    "type": "uint256"
                }
            ],
            "stateMutability": "view",
            "type": "function"
        },
        {
            "inputs": [
                {
                    "internalType": "uint256",
                    "name": "_goalCont",
                    "type": "uint256"
                }
            ],
            "name": "goal",
            "outputs": [],
            "stateMutability": "nonpayable",
            "type": "function"
        },
        {
            "inputs": [],
            "name": "goalContribution",
            "outputs": [
                {
                    "internalType": "uint256",
                    "name": "",
                    "type": "uint256"
                }
            ],
            "stateMutability": "view",
            "type": "function"
        },
        {
            "inputs": [],
            "name": "owner",
            "outputs": [
                {
                    "internalType": "address",
                    "name": "",
                    "type": "address"
                }
            ],
            "stateMutability": "view",
            "type": "function"
        },
        {
            "inputs": [],
            "name": "withdraw",
            "outputs": [],
            "stateMutability": "nonpayable",
            "type": "function"
        },
        {
            "stateMutability": "payable",
            "type": "receive"
        }
    ],
    "bytecode": "608060405234801561001057600080fd5b506040516103f53803806103f583398101604081905261002f91610071565b68056bc75e2d631000006001556100494262278d006100a1565b600255600080546001600160a01b0319166001600160a01b03929092169190911790556100c8565b60006020828403121561008357600080fd5b81516001600160a01b038116811461009a57600080fd5b9392505050565b808201808211156100c257634e487b7160e01b600052601160045260246000fd5b92915050565b61031e806100d76000396000f3fe60806040526004361061007f5760003560e01c80638da5cb5b1161004e5780638da5cb5b14610101578063beebf00714610139578063f7aab33b1461014f578063fdac32541461016557600080fd5b806312065fe01461009457806329dcb0cf146100b65780633ccfd60b146100cc57806380a49861146100e157600080fd5b3661008f5761008d34610173565b005b600080fd5b3480156100a057600080fd5b50475b6040519081526020015b60405180910390f35b3480156100c257600080fd5b506100a360025481565b3480156100d857600080fd5b5061008d610213565b3480156100ed57600080fd5b5061008d6100fc3660046102a8565b61027d565b34801561010d57600080fd5b50600054610121906001600160a01b031681565b6040516001600160a01b0390911681526020016100ad565b34801561014557600080fd5b506100a360035481565b34801561015b57600080fd5b506100a360015481565b61008d6101733660046102a8565b60025442106101bc5760405162461bcd60e51b815260206004820152601060248201526f14195c9a5bd9081a185cc8195b99195960821b60448201526064015b60405180910390fd5b8034146101f95760405162461bcd60e51b815260206004820152600b60248201526a14d95b9d08185b5bdd5b9d60aa1b60448201526064016101b3565b806003600082825461020b91906102c1565b909155505050565b6000546001600160a01b0316331461022a57600080fd5b600154600354101561023b57600080fd5b600080546040516001600160a01b03909116914780156108fc02929091818181858888f19350505050158015610275573d6000803e3d6000fd5b506000600355565b6000546001600160a01b0316331461029457600080fd5b6001548110156102a357600080fd5b600155565b6000602082840312156102ba57600080fd5b5035919050565b808201808211156102e257634e487b7160e01b600052601160045260246000fd5b9291505056fea264697066735822122009b81ad375f4ca8898e515c3717717e813513202d04c31d17b8caeaa9416cfb764736f6c63430008120033",
    "sourcePath": "/home/kirov/Desktop/Blockchain/ProjectSolidity/crowdfounding/contracts/CrowFounding.sol",
    "compiler": {
        "name": "solc",
        "version": "0.8.18+commit.87f61d96"
    },
    "functionHashes": {
        "deadline()": "29dcb0cf",
        "donation(uint256)": "fdac3254",
        "fundContribution()": "beebf007",
        "getBalance()": "12065fe0",
        "goal(uint256)": "80a49861",
        "goalContribution()": "f7aab33b",
        "owner()": "8da5cb5b",
        "withdraw()": "3ccfd60b"
    },
    "gasEstimates": {
        "creation": {
            "codeDepositCost": "159600",
            "executionCost": "infinite",
            "totalCost": "infinite"
        },
        "external": {
            "deadline()": "2307",
            "donation(uint256)": "26697",
            "fundContribution()": "2306",
            "getBalance()": "173",
            "goal(uint256)": "26657",
            "goalContribution()": "2328",
            "owner()": "2337",
            "withdraw()": "infinite"
        }
    }
}